{
  "_format": "hh-sol-artifact-1",
  "contractName": "BlockBoardNFT",
  "sourceName": "contracts/BlockBoardNFT.sol",
  "abi": [
    {
      "inputs": [],
      "stateMutability": "nonpayable",
      "type": "constructor"
    },
    {
      "anonymous": false,
      "inputs": [
        {
          "indexed": true,
          "internalType": "address",
          "name": "owner",
          "type": "address"
        },
        {
          "indexed": true,
          "internalType": "address",
          "name": "approved",
          "type": "address"
        },
        {
          "indexed": true,
          "internalType": "uint256",
          "name": "tokenId",
          "type": "uint256"
        }
      ],
      "name": "Approval",
      "type": "event"
    },
    {
      "anonymous": false,
      "inputs": [
        {
          "indexed": true,
          "internalType": "address",
          "name": "owner",
          "type": "address"
        },
        {
          "indexed": true,
          "internalType": "address",
          "name": "operator",
          "type": "address"
        },
        {
          "indexed": false,
          "internalType": "bool",
          "name": "approved",
          "type": "bool"
        }
      ],
      "name": "ApprovalForAll",
      "type": "event"
    },
    {
      "anonymous": false,
      "inputs": [
        {
          "indexed": true,
          "internalType": "address",
          "name": "from",
          "type": "address"
        },
        {
          "indexed": true,
          "internalType": "address",
          "name": "to",
          "type": "address"
        },
        {
          "indexed": true,
          "internalType": "uint256",
          "name": "tokenId",
          "type": "uint256"
        }
      ],
      "name": "Transfer",
      "type": "event"
    },
    {
      "inputs": [
        {
          "internalType": "address",
          "name": "to",
          "type": "address"
        },
        {
          "internalType": "uint256",
          "name": "tokenId",
          "type": "uint256"
        }
      ],
      "name": "approve",
      "outputs": [],
      "stateMutability": "nonpayable",
      "type": "function"
    },
    {
      "inputs": [
        {
          "internalType": "address",
          "name": "owner",
          "type": "address"
        }
      ],
      "name": "balanceOf",
      "outputs": [
        {
          "internalType": "uint256",
          "name": "",
          "type": "uint256"
        }
      ],
      "stateMutability": "view",
      "type": "function"
    },
    {
      "inputs": [
        {
          "internalType": "uint256",
          "name": "tokenId",
          "type": "uint256"
        }
      ],
      "name": "getApproved",
      "outputs": [
        {
          "internalType": "address",
          "name": "",
          "type": "address"
        }
      ],
      "stateMutability": "view",
      "type": "function"
    },
    {
      "inputs": [
        {
          "internalType": "address",
          "name": "owner",
          "type": "address"
        },
        {
          "internalType": "address",
          "name": "operator",
          "type": "address"
        }
      ],
      "name": "isApprovedForAll",
      "outputs": [
        {
          "internalType": "bool",
          "name": "",
          "type": "bool"
        }
      ],
      "stateMutability": "view",
      "type": "function"
    },
    {
      "inputs": [
        {
          "internalType": "address",
          "name": "recipient",
          "type": "address"
        }
      ],
      "name": "mint",
      "outputs": [
        {
          "internalType": "uint256",
          "name": "token_id",
          "type": "uint256"
        }
      ],
      "stateMutability": "nonpayable",
      "type": "function"
    },
    {
      "inputs": [],
      "name": "name",
      "outputs": [
        {
          "internalType": "string",
          "name": "",
          "type": "string"
        }
      ],
      "stateMutability": "view",
      "type": "function"
    },
    {
      "inputs": [
        {
          "internalType": "uint256",
          "name": "tokenId",
          "type": "uint256"
        }
      ],
      "name": "ownerOf",
      "outputs": [
        {
          "internalType": "address",
          "name": "",
          "type": "address"
        }
      ],
      "stateMutability": "view",
      "type": "function"
    },
    {
      "inputs": [
        {
          "internalType": "address",
          "name": "from",
          "type": "address"
        },
        {
          "internalType": "address",
          "name": "to",
          "type": "address"
        },
        {
          "internalType": "uint256",
          "name": "tokenId",
          "type": "uint256"
        }
      ],
      "name": "safeTransferFrom",
      "outputs": [],
      "stateMutability": "nonpayable",
      "type": "function"
    },
    {
      "inputs": [
        {
          "internalType": "address",
          "name": "from",
          "type": "address"
        },
        {
          "internalType": "address",
          "name": "to",
          "type": "address"
        },
        {
          "internalType": "uint256",
          "name": "tokenId",
          "type": "uint256"
        },
        {
          "internalType": "bytes",
          "name": "data",
          "type": "bytes"
        }
      ],
      "name": "safeTransferFrom",
      "outputs": [],
      "stateMutability": "nonpayable",
      "type": "function"
    },
    {
      "inputs": [
        {
          "internalType": "address",
          "name": "operator",
          "type": "address"
        },
        {
          "internalType": "bool",
          "name": "approved",
          "type": "bool"
        }
      ],
      "name": "setApprovalForAll",
      "outputs": [],
      "stateMutability": "nonpayable",
      "type": "function"
    },
    {
      "inputs": [
        {
          "internalType": "bytes4",
          "name": "interfaceId",
          "type": "bytes4"
        }
      ],
      "name": "supportsInterface",
      "outputs": [
        {
          "internalType": "bool",
          "name": "",
          "type": "bool"
        }
      ],
      "stateMutability": "view",
      "type": "function"
    },
    {
      "inputs": [],
      "name": "symbol",
      "outputs": [
        {
          "internalType": "string",
          "name": "",
          "type": "string"
        }
      ],
      "stateMutability": "view",
      "type": "function"
    },
    {
      "inputs": [
        {
          "internalType": "uint256",
          "name": "index",
          "type": "uint256"
        }
      ],
      "name": "tokenByIndex",
      "outputs": [
        {
          "internalType": "uint256",
          "name": "",
          "type": "uint256"
        }
      ],
      "stateMutability": "view",
      "type": "function"
    },
    {
      "inputs": [
        {
          "internalType": "address",
          "name": "owner",
          "type": "address"
        },
        {
          "internalType": "uint256",
          "name": "index",
          "type": "uint256"
        }
      ],
      "name": "tokenOfOwnerByIndex",
      "outputs": [
        {
          "internalType": "uint256",
          "name": "",
          "type": "uint256"
        }
      ],
      "stateMutability": "view",
      "type": "function"
    },
    {
      "inputs": [
        {
          "internalType": "uint256",
          "name": "tokenId",
          "type": "uint256"
        }
      ],
      "name": "tokenURI",
      "outputs": [
        {
          "internalType": "string",
          "name": "",
          "type": "string"
        }
      ],
      "stateMutability": "view",
      "type": "function"
    },
    {
      "inputs": [],
      "name": "totalSupply",
      "outputs": [
        {
          "internalType": "uint256",
          "name": "",
          "type": "uint256"
        }
      ],
      "stateMutability": "view",
      "type": "function"
    },
    {
      "inputs": [
        {
          "internalType": "address",
          "name": "from",
          "type": "address"
        },
        {
          "internalType": "address",
          "name": "to",
          "type": "address"
        },
        {
          "internalType": "uint256",
          "name": "tokenId",
          "type": "uint256"
        }
      ],
      "name": "transferFrom",
      "outputs": [],
      "stateMutability": "nonpayable",
      "type": "function"
    }
  ],
  "bytecode": "0x60806040523480156200001157600080fd5b506040518060400160405280600d81526020017f426c6f636b426f6172644e4654000000000000000000000000000000000000008152506040518060400160405280600681526020017f4242434e4654000000000000000000000000000000000000000000000000000081525081600090816200008f919062000324565b508060019081620000a1919062000324565b5050506200040b565b600081519050919050565b7f4e487b7100000000000000000000000000000000000000000000000000000000600052604160045260246000fd5b7f4e487b7100000000000000000000000000000000000000000000000000000000600052602260045260246000fd5b600060028204905060018216806200012c57607f821691505b602082108103620001425762000141620000e4565b5b50919050565b60008190508160005260206000209050919050565b60006020601f8301049050919050565b600082821b905092915050565b600060088302620001ac7fffffffffffffffffffffffffffffffffffffffffffffffffffffffffffffffff826200016d565b620001b886836200016d565b95508019841693508086168417925050509392505050565b6000819050919050565b6000819050919050565b600062000205620001ff620001f984620001d0565b620001da565b620001d0565b9050919050565b6000819050919050565b6200022183620001e4565b6200023962000230826200020c565b8484546200017a565b825550505050565b600090565b6200025062000241565b6200025d81848462000216565b505050565b5b8181101562000285576200027960008262000246565b60018101905062000263565b5050565b601f821115620002d4576200029e8162000148565b620002a9846200015d565b81016020851015620002b9578190505b620002d1620002c8856200015d565b83018262000262565b50505b505050565b600082821c905092915050565b6000620002f960001984600802620002d9565b1980831691505092915050565b6000620003148383620002e6565b9150826002028217905092915050565b6200032f82620000aa565b67ffffffffffffffff8111156200034b576200034a620000b5565b5b62000357825462000113565b6200036482828562000289565b600060209050601f8311600181146200039c576000841562000387578287015190505b62000393858262000306565b86555062000403565b601f198416620003ac8662000148565b60005b82811015620003d657848901518255600182019150602085019450602081019050620003af565b86831015620003f65784890151620003f2601f891682620002e6565b8355505b6001600288020188555050505b505050505050565b612dc8806200041b6000396000f3fe608060405234801561001057600080fd5b506004361061010b5760003560e01c80634f6ccce7116100a257806395d89b411161007157806395d89b41146102f0578063a22cb4651461030e578063b88d4fde1461032a578063c87b56dd14610346578063e985e9c5146103765761010b565b80634f6ccce7146102305780636352211e146102605780636a6278421461029057806370a08231146102c05761010b565b806318160ddd116100de57806318160ddd146101aa57806323b872dd146101c85780632f745c59146101e457806342842e0e146102145761010b565b806301ffc9a71461011057806306fdde0314610140578063081812fc1461015e578063095ea7b31461018e575b600080fd5b61012a60048036038101906101259190611e4d565b6103a6565b6040516101379190611e95565b60405180910390f35b610148610420565b6040516101559190611f40565b60405180910390f35b61017860048036038101906101739190611f98565b6104b2565b6040516101859190612006565b60405180910390f35b6101a860048036038101906101a3919061204d565b6104f8565b005b6101b261060f565b6040516101bf919061209c565b60405180910390f35b6101e260048036038101906101dd91906120b7565b61061c565b005b6101fe60048036038101906101f9919061204d565b61067c565b60405161020b919061209c565b60405180910390f35b61022e600480360381019061022991906120b7565b610721565b005b61024a60048036038101906102459190611f98565b610741565b604051610257919061209c565b60405180910390f35b61027a60048036038101906102759190611f98565b6107b2565b6040516102879190612006565b60405180910390f35b6102aa60048036038101906102a5919061210a565b610838565b6040516102b7919061209c565b60405180910390f35b6102da60048036038101906102d5919061210a565b610865565b6040516102e7919061209c565b60405180910390f35b6102f861091c565b6040516103059190611f40565b60405180910390f35b61032860048036038101906103239190612163565b6109ae565b005b610344600480360381019061033f91906122d8565b6109c4565b005b610360600480360381019061035b9190611f98565b610a26565b60405161036d9190611f40565b60405180910390f35b610390600480360381019061038b919061235b565b610a8e565b60405161039d9190611e95565b60405180910390f35b60007f780e9d63000000000000000000000000000000000000000000000000000000007bffffffffffffffffffffffffffffffffffffffffffffffffffffffff1916827bffffffffffffffffffffffffffffffffffffffffffffffffffffffff19161480610419575061041882610b22565b5b9050919050565b60606000805461042f906123ca565b80601f016020809104026020016040519081016040528092919081815260200182805461045b906123ca565b80156104a85780601f1061047d576101008083540402835291602001916104a8565b820191906000526020600020905b81548152906001019060200180831161048b57829003601f168201915b5050505050905090565b60006104bd82610c04565b6004600083815260200190815260200160002060009054906101000a900473ffffffffffffffffffffffffffffffffffffffff169050919050565b6000610503826107b2565b90508073ffffffffffffffffffffffffffffffffffffffff168373ffffffffffffffffffffffffffffffffffffffff1603610573576040517f08c379a000000000000000000000000000000000000000000000000000000000815260040161056a9061246d565b60405180910390fd5b8073ffffffffffffffffffffffffffffffffffffffff16610592610c4f565b73ffffffffffffffffffffffffffffffffffffffff1614806105c157506105c0816105bb610c4f565b610a8e565b5b610600576040517f08c379a00000000000000000000000000000000000000000000000000000000081526004016105f7906124ff565b60405180910390fd5b61060a8383610c57565b505050565b6000600880549050905090565b61062d610627610c4f565b82610d10565b61066c576040517f08c379a000000000000000000000000000000000000000000000000000000000815260040161066390612591565b60405180910390fd5b610677838383610da5565b505050565b600061068783610865565b82106106c8576040517f08c379a00000000000000000000000000000000000000000000000000000000081526004016106bf90612623565b60405180910390fd5b600660008473ffffffffffffffffffffffffffffffffffffffff1673ffffffffffffffffffffffffffffffffffffffff168152602001908152602001600020600083815260200190815260200160002054905092915050565b61073c838383604051806020016040528060008152506109c4565b505050565b600061074b61060f565b821061078c576040517f08c379a0000000000000000000000000000000000000000000000000000000008152600401610783906126b5565b60405180910390fd5b600882815481106107a05761079f6126d5565b5b90600052602060002001549050919050565b6000806107be8361109e565b9050600073ffffffffffffffffffffffffffffffffffffffff168173ffffffffffffffffffffffffffffffffffffffff160361082f576040517f08c379a000000000000000000000000000000000000000000000000000000000815260040161082690612750565b60405180910390fd5b80915050919050565b6000610844600a6110db565b6000610850600a6110f1565b905061085c83826110ff565b80915050919050565b60008073ffffffffffffffffffffffffffffffffffffffff168273ffffffffffffffffffffffffffffffffffffffff16036108d5576040517f08c379a00000000000000000000000000000000000000000000000000000000081526004016108cc906127e2565b60405180910390fd5b600360008373ffffffffffffffffffffffffffffffffffffffff1673ffffffffffffffffffffffffffffffffffffffff168152602001908152602001600020549050919050565b60606001805461092b906123ca565b80601f0160208091040260200160405190810160405280929190818152602001828054610957906123ca565b80156109a45780601f10610979576101008083540402835291602001916109a4565b820191906000526020600020905b81548152906001019060200180831161098757829003601f168201915b5050505050905090565b6109c06109b9610c4f565b838361131c565b5050565b6109d56109cf610c4f565b83610d10565b610a14576040517f08c379a0000000000000000000000000000000000000000000000000000000008152600401610a0b90612591565b60405180910390fd5b610a2084848484611488565b50505050565b6060610a3182610c04565b6000610a3b6114e4565b90506000815111610a5b5760405180602001604052806000815250610a86565b80610a65846114fb565b604051602001610a7692919061283e565b6040516020818303038152906040525b915050919050565b6000600560008473ffffffffffffffffffffffffffffffffffffffff1673ffffffffffffffffffffffffffffffffffffffff16815260200190815260200160002060008373ffffffffffffffffffffffffffffffffffffffff1673ffffffffffffffffffffffffffffffffffffffff16815260200190815260200160002060009054906101000a900460ff16905092915050565b60007f80ac58cd000000000000000000000000000000000000000000000000000000007bffffffffffffffffffffffffffffffffffffffffffffffffffffffff1916827bffffffffffffffffffffffffffffffffffffffffffffffffffffffff19161480610bed57507f5b5e139f000000000000000000000000000000000000000000000000000000007bffffffffffffffffffffffffffffffffffffffffffffffffffffffff1916827bffffffffffffffffffffffffffffffffffffffffffffffffffffffff1916145b80610bfd5750610bfc826115c9565b5b9050919050565b610c0d81611633565b610c4c576040517f08c379a0000000000000000000000000000000000000000000000000000000008152600401610c4390612750565b60405180910390fd5b50565b600033905090565b816004600083815260200190815260200160002060006101000a81548173ffffffffffffffffffffffffffffffffffffffff021916908373ffffffffffffffffffffffffffffffffffffffff160217905550808273ffffffffffffffffffffffffffffffffffffffff16610cca836107b2565b73ffffffffffffffffffffffffffffffffffffffff167f8c5be1e5ebec7d5bd14f71427d1e84f3dd0314c0f7b2291e5b200ac8c7c3b92560405160405180910390a45050565b600080610d1c836107b2565b90508073ffffffffffffffffffffffffffffffffffffffff168473ffffffffffffffffffffffffffffffffffffffff161480610d5e5750610d5d8185610a8e565b5b80610d9c57508373ffffffffffffffffffffffffffffffffffffffff16610d84846104b2565b73ffffffffffffffffffffffffffffffffffffffff16145b91505092915050565b8273ffffffffffffffffffffffffffffffffffffffff16610dc5826107b2565b73ffffffffffffffffffffffffffffffffffffffff1614610e1b576040517f08c379a0000000000000000000000000000000000000000000000000000000008152600401610e12906128d4565b60405180910390fd5b600073ffffffffffffffffffffffffffffffffffffffff168273ffffffffffffffffffffffffffffffffffffffff1603610e8a576040517f08c379a0000000000000000000000000000000000000000000000000000000008152600401610e8190612966565b60405180910390fd5b610e978383836001611674565b8273ffffffffffffffffffffffffffffffffffffffff16610eb7826107b2565b73ffffffffffffffffffffffffffffffffffffffff1614610f0d576040517f08c379a0000000000000000000000000000000000000000000000000000000008152600401610f04906128d4565b60405180910390fd5b6004600082815260200190815260200160002060006101000a81549073ffffffffffffffffffffffffffffffffffffffff02191690556001600360008573ffffffffffffffffffffffffffffffffffffffff1673ffffffffffffffffffffffffffffffffffffffff168152602001908152602001600020600082825403925050819055506001600360008473ffffffffffffffffffffffffffffffffffffffff1673ffffffffffffffffffffffffffffffffffffffff16815260200190815260200160002060008282540192505081905550816002600083815260200190815260200160002060006101000a81548173ffffffffffffffffffffffffffffffffffffffff021916908373ffffffffffffffffffffffffffffffffffffffff160217905550808273ffffffffffffffffffffffffffffffffffffffff168473ffffffffffffffffffffffffffffffffffffffff167fddf252ad1be2c89b69c2b068fc378daa952ba7f163c4a11628f55a4df523b3ef60405160405180910390a461109983838360016117d2565b505050565b60006002600083815260200190815260200160002060009054906101000a900473ffffffffffffffffffffffffffffffffffffffff169050919050565b6001816000016000828254019250508190555050565b600081600001549050919050565b600073ffffffffffffffffffffffffffffffffffffffff168273ffffffffffffffffffffffffffffffffffffffff160361116e576040517f08c379a0000000000000000000000000000000000000000000000000000000008152600401611165906129d2565b60405180910390fd5b61117781611633565b156111b7576040517f08c379a00000000000000000000000000000000000000000000000000000000081526004016111ae90612a3e565b60405180910390fd5b6111c5600083836001611674565b6111ce81611633565b1561120e576040517f08c379a000000000000000000000000000000000000000000000000000000000815260040161120590612a3e565b60405180910390fd5b6001600360008473ffffffffffffffffffffffffffffffffffffffff1673ffffffffffffffffffffffffffffffffffffffff16815260200190815260200160002060008282540192505081905550816002600083815260200190815260200160002060006101000a81548173ffffffffffffffffffffffffffffffffffffffff021916908373ffffffffffffffffffffffffffffffffffffffff160217905550808273ffffffffffffffffffffffffffffffffffffffff16600073ffffffffffffffffffffffffffffffffffffffff167fddf252ad1be2c89b69c2b068fc378daa952ba7f163c4a11628f55a4df523b3ef60405160405180910390a46113186000838360016117d2565b5050565b8173ffffffffffffffffffffffffffffffffffffffff168373ffffffffffffffffffffffffffffffffffffffff160361138a576040517f08c379a000000000000000000000000000000000000000000000000000000000815260040161138190612aaa565b60405180910390fd5b80600560008573ffffffffffffffffffffffffffffffffffffffff1673ffffffffffffffffffffffffffffffffffffffff16815260200190815260200160002060008473ffffffffffffffffffffffffffffffffffffffff1673ffffffffffffffffffffffffffffffffffffffff16815260200190815260200160002060006101000a81548160ff0219169083151502179055508173ffffffffffffffffffffffffffffffffffffffff168373ffffffffffffffffffffffffffffffffffffffff167f17307eab39ab6107e8899845ad3d59bd9653f200f220920489ca2b5937696c318360405161147b9190611e95565b60405180910390a3505050565b611493848484610da5565b61149f848484846117d8565b6114de576040517f08c379a00000000000000000000000000000000000000000000000000000000081526004016114d590612b3c565b60405180910390fd5b50505050565b606060405180602001604052806000815250905090565b60606000600161150a8461195f565b01905060008167ffffffffffffffff811115611529576115286121ad565b5b6040519080825280601f01601f19166020018201604052801561155b5781602001600182028036833780820191505090505b509050600082602001820190505b6001156115be578080600190039150507f3031323334353637383961626364656600000000000000000000000000000000600a86061a8153600a85816115b2576115b1612b5c565b5b04945060008503611569575b819350505050919050565b60007f01ffc9a7000000000000000000000000000000000000000000000000000000007bffffffffffffffffffffffffffffffffffffffffffffffffffffffff1916827bffffffffffffffffffffffffffffffffffffffffffffffffffffffff1916149050919050565b60008073ffffffffffffffffffffffffffffffffffffffff166116558361109e565b73ffffffffffffffffffffffffffffffffffffffff1614159050919050565b61168084848484611ab2565b60018111156116c4576040517f08c379a00000000000000000000000000000000000000000000000000000000081526004016116bb90612bfd565b60405180910390fd5b6000829050600073ffffffffffffffffffffffffffffffffffffffff168573ffffffffffffffffffffffffffffffffffffffff160361170b5761170681611ab8565b61174a565b8373ffffffffffffffffffffffffffffffffffffffff168573ffffffffffffffffffffffffffffffffffffffff1614611749576117488582611b01565b5b5b600073ffffffffffffffffffffffffffffffffffffffff168473ffffffffffffffffffffffffffffffffffffffff160361178c5761178781611c6e565b6117cb565b8473ffffffffffffffffffffffffffffffffffffffff168473ffffffffffffffffffffffffffffffffffffffff16146117ca576117c98482611d3f565b5b5b5050505050565b50505050565b60006117f98473ffffffffffffffffffffffffffffffffffffffff16611dbe565b15611952578373ffffffffffffffffffffffffffffffffffffffff1663150b7a02611822610c4f565b8786866040518563ffffffff1660e01b81526004016118449493929190612c72565b6020604051808303816000875af192505050801561188057506040513d601f19601f8201168201806040525081019061187d9190612cd3565b60015b611902573d80600081146118b0576040519150601f19603f3d011682016040523d82523d6000602084013e6118b5565b606091505b5060008151036118fa576040517f08c379a00000000000000000000000000000000000000000000000000000000081526004016118f190612b3c565b60405180910390fd5b805181602001fd5b63150b7a0260e01b7bffffffffffffffffffffffffffffffffffffffffffffffffffffffff1916817bffffffffffffffffffffffffffffffffffffffffffffffffffffffff191614915050611957565b600190505b949350505050565b600080600090507a184f03e93ff9f4daa797ed6e38ed64bf6a1f01000000000000000083106119bd577a184f03e93ff9f4daa797ed6e38ed64bf6a1f01000000000000000083816119b3576119b2612b5c565b5b0492506040810190505b6d04ee2d6d415b85acef810000000083106119fa576d04ee2d6d415b85acef810000000083816119f0576119ef612b5c565b5b0492506020810190505b662386f26fc100008310611a2957662386f26fc100008381611a1f57611a1e612b5c565b5b0492506010810190505b6305f5e1008310611a52576305f5e1008381611a4857611a47612b5c565b5b0492506008810190505b6127108310611a77576127108381611a6d57611a6c612b5c565b5b0492506004810190505b60648310611a9a5760648381611a9057611a8f612b5c565b5b0492506002810190505b600a8310611aa9576001810190505b80915050919050565b50505050565b6008805490506009600083815260200190815260200160002081905550600881908060018154018082558091505060019003906000526020600020016000909190919091505550565b60006001611b0e84610865565b611b189190612d2f565b9050600060076000848152602001908152602001600020549050818114611bfd576000600660008673ffffffffffffffffffffffffffffffffffffffff1673ffffffffffffffffffffffffffffffffffffffff168152602001908152602001600020600084815260200190815260200160002054905080600660008773ffffffffffffffffffffffffffffffffffffffff1673ffffffffffffffffffffffffffffffffffffffff168152602001908152602001600020600084815260200190815260200160002081905550816007600083815260200190815260200160002081905550505b6007600084815260200190815260200160002060009055600660008573ffffffffffffffffffffffffffffffffffffffff1673ffffffffffffffffffffffffffffffffffffffff16815260200190815260200160002060008381526020019081526020016000206000905550505050565b60006001600880549050611c829190612d2f565b9050600060096000848152602001908152602001600020549050600060088381548110611cb257611cb16126d5565b5b906000526020600020015490508060088381548110611cd457611cd36126d5565b5b906000526020600020018190555081600960008381526020019081526020016000208190555060096000858152602001908152602001600020600090556008805480611d2357611d22612d63565b5b6001900381819060005260206000200160009055905550505050565b6000611d4a83610865565b905081600660008573ffffffffffffffffffffffffffffffffffffffff1673ffffffffffffffffffffffffffffffffffffffff168152602001908152602001600020600083815260200190815260200160002081905550806007600084815260200190815260200160002081905550505050565b6000808273ffffffffffffffffffffffffffffffffffffffff163b119050919050565b6000604051905090565b600080fd5b600080fd5b60007fffffffff0000000000000000000000000000000000000000000000000000000082169050919050565b611e2a81611df5565b8114611e3557600080fd5b50565b600081359050611e4781611e21565b92915050565b600060208284031215611e6357611e62611deb565b5b6000611e7184828501611e38565b91505092915050565b60008115159050919050565b611e8f81611e7a565b82525050565b6000602082019050611eaa6000830184611e86565b92915050565b600081519050919050565b600082825260208201905092915050565b60005b83811015611eea578082015181840152602081019050611ecf565b60008484015250505050565b6000601f19601f8301169050919050565b6000611f1282611eb0565b611f1c8185611ebb565b9350611f2c818560208601611ecc565b611f3581611ef6565b840191505092915050565b60006020820190508181036000830152611f5a8184611f07565b905092915050565b6000819050919050565b611f7581611f62565b8114611f8057600080fd5b50565b600081359050611f9281611f6c565b92915050565b600060208284031215611fae57611fad611deb565b5b6000611fbc84828501611f83565b91505092915050565b600073ffffffffffffffffffffffffffffffffffffffff82169050919050565b6000611ff082611fc5565b9050919050565b61200081611fe5565b82525050565b600060208201905061201b6000830184611ff7565b92915050565b61202a81611fe5565b811461203557600080fd5b50565b60008135905061204781612021565b92915050565b6000806040838503121561206457612063611deb565b5b600061207285828601612038565b925050602061208385828601611f83565b9150509250929050565b61209681611f62565b82525050565b60006020820190506120b1600083018461208d565b92915050565b6000806000606084860312156120d0576120cf611deb565b5b60006120de86828701612038565b93505060206120ef86828701612038565b925050604061210086828701611f83565b9150509250925092565b6000602082840312156121205761211f611deb565b5b600061212e84828501612038565b91505092915050565b61214081611e7a565b811461214b57600080fd5b50565b60008135905061215d81612137565b92915050565b6000806040838503121561217a57612179611deb565b5b600061218885828601612038565b92505060206121998582860161214e565b9150509250929050565b600080fd5b600080fd5b7f4e487b7100000000000000000000000000000000000000000000000000000000600052604160045260246000fd5b6121e582611ef6565b810181811067ffffffffffffffff82111715612204576122036121ad565b5b80604052505050565b6000612217611de1565b905061222382826121dc565b919050565b600067ffffffffffffffff821115612243576122426121ad565b5b61224c82611ef6565b9050602081019050919050565b82818337600083830152505050565b600061227b61227684612228565b61220d565b905082815260208101848484011115612297576122966121a8565b5b6122a2848285612259565b509392505050565b600082601f8301126122bf576122be6121a3565b5b81356122cf848260208601612268565b91505092915050565b600080600080608085870312156122f2576122f1611deb565b5b600061230087828801612038565b945050602061231187828801612038565b935050604061232287828801611f83565b925050606085013567ffffffffffffffff81111561234357612342611df0565b5b61234f878288016122aa565b91505092959194509250565b6000806040838503121561237257612371611deb565b5b600061238085828601612038565b925050602061239185828601612038565b9150509250929050565b7f4e487b7100000000000000000000000000000000000000000000000000000000600052602260045260246000fd5b600060028204905060018216806123e257607f821691505b6020821081036123f5576123f461239b565b5b50919050565b7f4552433732313a20617070726f76616c20746f2063757272656e74206f776e6560008201527f7200000000000000000000000000000000000000000000000000000000000000602082015250565b6000612457602183611ebb565b9150612462826123fb565b604082019050919050565b600060208201905081810360008301526124868161244a565b9050919050565b7f4552433732313a20617070726f76652063616c6c6572206973206e6f7420746f60008201527f6b656e206f776e6572206f7220617070726f76656420666f7220616c6c000000602082015250565b60006124e9603d83611ebb565b91506124f48261248d565b604082019050919050565b60006020820190508181036000830152612518816124dc565b9050919050565b7f4552433732313a2063616c6c6572206973206e6f7420746f6b656e206f776e6560008201527f72206f7220617070726f76656400000000000000000000000000000000000000602082015250565b600061257b602d83611ebb565b91506125868261251f565b604082019050919050565b600060208201905081810360008301526125aa8161256e565b9050919050565b7f455243373231456e756d657261626c653a206f776e657220696e646578206f7560008201527f74206f6620626f756e6473000000000000000000000000000000000000000000602082015250565b600061260d602b83611ebb565b9150612618826125b1565b604082019050919050565b6000602082019050818103600083015261263c81612600565b9050919050565b7f455243373231456e756d657261626c653a20676c6f62616c20696e646578206f60008201527f7574206f6620626f756e64730000000000000000000000000000000000000000602082015250565b600061269f602c83611ebb565b91506126aa82612643565b604082019050919050565b600060208201905081810360008301526126ce81612692565b9050919050565b7f4e487b7100000000000000000000000000000000000000000000000000000000600052603260045260246000fd5b7f4552433732313a20696e76616c696420746f6b656e2049440000000000000000600082015250565b600061273a601883611ebb565b915061274582612704565b602082019050919050565b600060208201905081810360008301526127698161272d565b9050919050565b7f4552433732313a2061646472657373207a65726f206973206e6f74206120766160008201527f6c6964206f776e65720000000000000000000000000000000000000000000000602082015250565b60006127cc602983611ebb565b91506127d782612770565b604082019050919050565b600060208201905081810360008301526127fb816127bf565b9050919050565b600081905092915050565b600061281882611eb0565b6128228185612802565b9350612832818560208601611ecc565b80840191505092915050565b600061284a828561280d565b9150612856828461280d565b91508190509392505050565b7f4552433732313a207472616e736665722066726f6d20696e636f72726563742060008201527f6f776e6572000000000000000000000000000000000000000000000000000000602082015250565b60006128be602583611ebb565b91506128c982612862565b604082019050919050565b600060208201905081810360008301526128ed816128b1565b9050919050565b7f4552433732313a207472616e7366657220746f20746865207a65726f2061646460008201527f7265737300000000000000000000000000000000000000000000000000000000602082015250565b6000612950602483611ebb565b915061295b826128f4565b604082019050919050565b6000602082019050818103600083015261297f81612943565b9050919050565b7f4552433732313a206d696e7420746f20746865207a65726f2061646472657373600082015250565b60006129bc602083611ebb565b91506129c782612986565b602082019050919050565b600060208201905081810360008301526129eb816129af565b9050919050565b7f4552433732313a20746f6b656e20616c7265616479206d696e74656400000000600082015250565b6000612a28601c83611ebb565b9150612a33826129f2565b602082019050919050565b60006020820190508181036000830152612a5781612a1b565b9050919050565b7f4552433732313a20617070726f766520746f2063616c6c657200000000000000600082015250565b6000612a94601983611ebb565b9150612a9f82612a5e565b602082019050919050565b60006020820190508181036000830152612ac381612a87565b9050919050565b7f4552433732313a207472616e7366657220746f206e6f6e20455243373231526560008201527f63656976657220696d706c656d656e7465720000000000000000000000000000602082015250565b6000612b26603283611ebb565b9150612b3182612aca565b604082019050919050565b60006020820190508181036000830152612b5581612b19565b9050919050565b7f4e487b7100000000000000000000000000000000000000000000000000000000600052601260045260246000fd5b7f455243373231456e756d657261626c653a20636f6e736563757469766520747260008201527f616e7366657273206e6f7420737570706f727465640000000000000000000000602082015250565b6000612be7603583611ebb565b9150612bf282612b8b565b604082019050919050565b60006020820190508181036000830152612c1681612bda565b9050919050565b600081519050919050565b600082825260208201905092915050565b6000612c4482612c1d565b612c4e8185612c28565b9350612c5e818560208601611ecc565b612c6781611ef6565b840191505092915050565b6000608082019050612c876000830187611ff7565b612c946020830186611ff7565b612ca1604083018561208d565b8181036060830152612cb38184612c39565b905095945050505050565b600081519050612ccd81611e21565b92915050565b600060208284031215612ce957612ce8611deb565b5b6000612cf784828501612cbe565b91505092915050565b7f4e487b7100000000000000000000000000000000000000000000000000000000600052601160045260246000fd5b6000612d3a82611f62565b9150612d4583611f62565b9250828203905081811115612d5d57612d5c612d00565b5b92915050565b7f4e487b7100000000000000000000000000000000000000000000000000000000600052603160045260246000fdfea26469706673582212205873bfb116127f2fb01e83a2d6bb283485f739376bb14ebb59a3488295ecf03c64736f6c63430008120033",
  "linkReferences": {},
  "deployedLinkReferences": {}
}