{
  "_format": "hh-sol-artifact-1",
  "contractName": "BlockBoard",
  "sourceName": "contracts/BlockBoard.sol",
  "abi": [
    {
      "inputs": [
        {
          "internalType": "address",
          "name": "nft_contract_addr",
          "type": "address"
        }
      ],
      "stateMutability": "nonpayable",
      "type": "constructor"
    },
    {
      "inputs": [],
      "name": "BOUNTY_PERCENTAGE",
      "outputs": [
        {
          "internalType": "uint256",
          "name": "",
          "type": "uint256"
        }
      ],
      "stateMutability": "view",
      "type": "function"
    },
    {
      "inputs": [
        {
          "internalType": "uint256",
          "name": "",
          "type": "uint256"
        }
      ],
      "name": "billboard_token_list",
      "outputs": [
        {
          "internalType": "uint256",
          "name": "",
          "type": "uint256"
        }
      ],
      "stateMutability": "view",
      "type": "function"
    },
    {
      "inputs": [
        {
          "internalType": "uint256",
          "name": "",
          "type": "uint256"
        }
      ],
      "name": "billboards_map",
      "outputs": [
        {
          "internalType": "bool",
          "name": "exists",
          "type": "bool"
        },
        {
          "internalType": "uint256",
          "name": "earnings",
          "type": "uint256"
        },
        {
          "internalType": "uint256",
          "name": "token_id",
          "type": "uint256"
        },
        {
          "internalType": "address",
          "name": "owner",
          "type": "address"
        },
        {
          "components": [
            {
              "internalType": "uint256",
              "name": "lat",
              "type": "uint256"
            },
            {
              "internalType": "uint256",
              "name": "long",
              "type": "uint256"
            }
          ],
          "internalType": "struct BlockBoard.GeoPoint",
          "name": "location",
          "type": "tuple"
        },
        {
          "internalType": "string",
          "name": "ad_url",
          "type": "string"
        },
        {
          "internalType": "address",
          "name": "renter",
          "type": "address"
        },
        {
          "internalType": "uint256",
          "name": "cost_per_block",
          "type": "uint256"
        },
        {
          "internalType": "uint256",
          "name": "block_of_rent",
          "type": "uint256"
        }
      ],
      "stateMutability": "view",
      "type": "function"
    },
    {
      "inputs": [
        {
          "internalType": "uint256",
          "name": "billboard_id",
          "type": "uint256"
        }
      ],
      "name": "getAd",
      "outputs": [
        {
          "internalType": "string",
          "name": "ad_url",
          "type": "string"
        }
      ],
      "stateMutability": "view",
      "type": "function"
    },
    {
      "inputs": [
        {
          "internalType": "uint256",
          "name": "billboard_token_id",
          "type": "uint256"
        }
      ],
      "name": "getRentForBillboard",
      "outputs": [
        {
          "internalType": "uint256",
          "name": "accumulated",
          "type": "uint256"
        }
      ],
      "stateMutability": "view",
      "type": "function"
    },
    {
      "inputs": [
        {
          "internalType": "address",
          "name": "renter_addr",
          "type": "address"
        }
      ],
      "name": "getRenterAccumulatedTotal",
      "outputs": [
        {
          "internalType": "uint256",
          "name": "accumulated",
          "type": "uint256"
        }
      ],
      "stateMutability": "view",
      "type": "function"
    },
    {
      "inputs": [
        {
          "internalType": "address",
          "name": "renter_addr",
          "type": "address"
        }
      ],
      "name": "getRenterAccumulatingPerBlock",
      "outputs": [
        {
          "internalType": "uint256",
          "name": "accumulating_per_block",
          "type": "uint256"
        }
      ],
      "stateMutability": "view",
      "type": "function"
    },
    {
      "inputs": [
        {
          "internalType": "address",
          "name": "renter_addr",
          "type": "address"
        }
      ],
      "name": "killRenter",
      "outputs": [],
      "stateMutability": "nonpayable",
      "type": "function"
    },
    {
      "inputs": [
        {
          "internalType": "uint256",
          "name": "geo_lat",
          "type": "uint256"
        },
        {
          "internalType": "uint256",
          "name": "geo_y",
          "type": "uint256"
        }
      ],
      "name": "registerBillboard",
      "outputs": [],
      "stateMutability": "nonpayable",
      "type": "function"
    },
    {
      "inputs": [
        {
          "internalType": "string",
          "name": "ad_url",
          "type": "string"
        },
        {
          "internalType": "uint256",
          "name": "billboard_token_id",
          "type": "uint256"
        },
        {
          "internalType": "uint256",
          "name": "cost_per_block",
          "type": "uint256"
        }
      ],
      "name": "rentBillboard",
      "outputs": [],
      "stateMutability": "payable",
      "type": "function"
    },
    {
      "inputs": [
        {
          "internalType": "address",
          "name": "",
          "type": "address"
        }
      ],
      "name": "renter_stakes",
      "outputs": [
        {
          "internalType": "uint256",
          "name": "",
          "type": "uint256"
        }
      ],
      "stateMutability": "view",
      "type": "function"
    },
    {
      "inputs": [],
      "name": "unstakeRent",
      "outputs": [],
      "stateMutability": "nonpayable",
      "type": "function"
    }
  ],
  "bytecode": "0x60806040523480156200001157600080fd5b506040516200252d3803806200252d8339818101604052810190620000379190620000e8565b806000806101000a81548173ffffffffffffffffffffffffffffffffffffffff021916908373ffffffffffffffffffffffffffffffffffffffff160217905550506200011a565b600080fd5b600073ffffffffffffffffffffffffffffffffffffffff82169050919050565b6000620000b08262000083565b9050919050565b620000c281620000a3565b8114620000ce57600080fd5b50565b600081519050620000e281620000b7565b92915050565b6000602082840312156200010157620001006200007e565b5b60006200011184828501620000d1565b91505092915050565b612403806200012a6000396000f3fe6080604052600436106100a75760003560e01c80637cacc179116100645780637cacc179146101d35780637ede1c071461021057806385c397901461024d57806394b76e0e1461028a578063cd3878e9146102cf578063d560deb0146102e6576100a7565b80630b8005fe146100ac57806320caf786146100c85780632343d84c146100f357806337a44081146101305780634d90dff51461016d5780634f8837e114610196575b600080fd5b6100c660048036038101906100c1919061194b565b61030f565b005b3480156100d457600080fd5b506100dd610516565b6040516100ea91906119c9565b60405180910390f35b3480156100ff57600080fd5b5061011a60048036038101906101159190611a42565b61051b565b60405161012791906119c9565b60405180910390f35b34801561013c57600080fd5b5061015760048036038101906101529190611a42565b610782565b60405161016491906119c9565b60405180910390f35b34801561017957600080fd5b50610194600480360381019061018f9190611a6f565b6109e1565b005b3480156101a257600080fd5b506101bd60048036038101906101b89190611aaf565b610c74565b6040516101ca91906119c9565b60405180910390f35b3480156101df57600080fd5b506101fa60048036038101906101f59190611aaf565b610c98565b60405161020791906119c9565b60405180910390f35b34801561021c57600080fd5b5061023760048036038101906102329190611aaf565b610d5a565b6040516102449190611b5b565b60405180910390f35b34801561025957600080fd5b50610274600480360381019061026f9190611a42565b610e02565b60405161028191906119c9565b60405180910390f35b34801561029657600080fd5b506102b160048036038101906102ac9190611aaf565b610e1a565b6040516102c699989796959493929190611be5565b60405180910390f35b3480156102db57600080fd5b506102e4610f5b565b005b3480156102f257600080fd5b5061030d60048036038101906103089190611a42565b6110b3565b005b600115156001600084815260200190815260200160002060000160009054906101000a900460ff16151514610379576040517f08c379a000000000000000000000000000000000000000000000000000000000815260040161037090611cc6565b60405180910390fd5b80600160008481526020019081526020016000206008015411156103d2576040517f08c379a00000000000000000000000000000000000000000000000000000000081526004016103c990611d58565b60405180910390fd5b80341015610415576040517f08c379a000000000000000000000000000000000000000000000000000000000815260040161040c90611dc4565b60405180910390fd5b61041e826112fb565b34600360003373ffffffffffffffffffffffffffffffffffffffff1673ffffffffffffffffffffffffffffffffffffffff16815260200190815260200160002081905550336001600084815260200190815260200160002060070160006101000a81548173ffffffffffffffffffffffffffffffffffffffff021916908373ffffffffffffffffffffffffffffffffffffffff160217905550806001600084815260200190815260200160002060080181905550436001600084815260200190815260200160002060090181905550826001600084815260200190815260200160002060060190816105109190611ff0565b50505050565b600281565b6000805b60028054905081101561077c5760006001600060028481548110610546576105456120c2565b5b90600052602060002001548152602001908152602001600020604051806101200160405290816000820160009054906101000a900460ff1615151515815260200160018201548152602001600282015481526020016003820160009054906101000a900473ffffffffffffffffffffffffffffffffffffffff1673ffffffffffffffffffffffffffffffffffffffff1673ffffffffffffffffffffffffffffffffffffffff1681526020016004820160405180604001604052908160008201548152602001600182015481525050815260200160068201805461062890611e13565b80601f016020809104026020016040519081016040528092919081815260200182805461065490611e13565b80156106a15780601f10610676576101008083540402835291602001916106a1565b820191906000526020600020905b81548152906001019060200180831161068457829003601f168201915b505050505081526020016007820160009054906101000a900473ffffffffffffffffffffffffffffffffffffffff1673ffffffffffffffffffffffffffffffffffffffff1673ffffffffffffffffffffffffffffffffffffffff1681526020016008820154815260200160098201548152505090508373ffffffffffffffffffffffffffffffffffffffff168160c0015173ffffffffffffffffffffffffffffffffffffffff16036107685761075a8160400151610c98565b836107659190612120565b92505b50808061077490612154565b91505061051f565b50919050565b6000805b6002805490508110156109db57600060016000600284815481106107ad576107ac6120c2565b5b90600052602060002001548152602001908152602001600020604051806101200160405290816000820160009054906101000a900460ff1615151515815260200160018201548152602001600282015481526020016003820160009054906101000a900473ffffffffffffffffffffffffffffffffffffffff1673ffffffffffffffffffffffffffffffffffffffff1673ffffffffffffffffffffffffffffffffffffffff1681526020016004820160405180604001604052908160008201548152602001600182015481525050815260200160068201805461088f90611e13565b80601f01602080910402602001604051908101604052809291908181526020018280546108bb90611e13565b80156109085780601f106108dd57610100808354040283529160200191610908565b820191906000526020600020905b8154815290600101906020018083116108eb57829003601f168201915b505050505081526020016007820160009054906101000a900473ffffffffffffffffffffffffffffffffffffffff1673ffffffffffffffffffffffffffffffffffffffff1673ffffffffffffffffffffffffffffffffffffffff1681526020016008820154815260200160098201548152505090508373ffffffffffffffffffffffffffffffffffffffff168160c0015173ffffffffffffffffffffffffffffffffffffffff16036109c7578060e00151836109c49190612120565b92505b5080806109d390612154565b915050610786565b50919050565b6000604051806040016040528084815260200183815250905060008060009054906101000a900473ffffffffffffffffffffffffffffffffffffffff1673ffffffffffffffffffffffffffffffffffffffff16636a627842336040518263ffffffff1660e01b8152600401610a56919061219c565b6020604051808303816000875af1158015610a75573d6000803e3d6000fd5b505050506040513d601f19601f82011682018060405250810190610a9991906121cc565b90506000604051806101200160405280600115158152602001600081526020018381526020013373ffffffffffffffffffffffffffffffffffffffff168152602001848152602001604051806020016040528060008152508152602001600073ffffffffffffffffffffffffffffffffffffffff16815260200160008152602001600081525090506002829080600181540180825580915050600190039060005260206000200160009091909190915055806001600084815260200190815260200160002060008201518160000160006101000a81548160ff021916908315150217905550602082015181600101556040820151816002015560608201518160030160006101000a81548173ffffffffffffffffffffffffffffffffffffffff021916908373ffffffffffffffffffffffffffffffffffffffff1602179055506080820151816004016000820151816000015560208201518160010155505060a0820151816006019081610c0d9190611ff0565b5060c08201518160070160006101000a81548173ffffffffffffffffffffffffffffffffffffffff021916908373ffffffffffffffffffffffffffffffffffffffff16021790555060e0820151816008015561010082015181600901559050505050505050565b60028181548110610c8457600080fd5b906000526020600020016000915090505481565b6000600115156001600084815260200190815260200160002060000160009054906101000a900460ff16151514610d04576040517f08c379a0000000000000000000000000000000000000000000000000000000008152600401610cfb90611cc6565b60405180910390fd5b600060016000848152602001908152602001600020600901549050600060016000858152602001908152602001600020600801549050808243610d4791906121f9565b610d51919061222d565b92505050919050565b6060600160008381526020019081526020016000206006018054610d7d90611e13565b80601f0160208091040260200160405190810160405280929190818152602001828054610da990611e13565b8015610df65780601f10610dcb57610100808354040283529160200191610df6565b820191906000526020600020905b815481529060010190602001808311610dd957829003601f168201915b50505050509050919050565b60036020528060005260406000206000915090505481565b60016020528060005260406000206000915090508060000160009054906101000a900460ff16908060010154908060020154908060030160009054906101000a900473ffffffffffffffffffffffffffffffffffffffff1690806004016040518060400160405290816000820154815260200160018201548152505090806006018054610ea690611e13565b80601f0160208091040260200160405190810160405280929190818152602001828054610ed290611e13565b8015610f1f5780601f10610ef457610100808354040283529160200191610f1f565b820191906000526020600020905b815481529060010190602001808311610f0257829003601f168201915b5050505050908060070160009054906101000a900473ffffffffffffffffffffffffffffffffffffffff16908060080154908060090154905089565b6000600360003373ffffffffffffffffffffffffffffffffffffffff1673ffffffffffffffffffffffffffffffffffffffff1681526020019081526020016000205411610fdd576040517f08c379a0000000000000000000000000000000000000000000000000000000008152600401610fd4906122bb565b60405180910390fd5b610fe633611564565b3373ffffffffffffffffffffffffffffffffffffffff166108fc600360003373ffffffffffffffffffffffffffffffffffffffff1673ffffffffffffffffffffffffffffffffffffffff168152602001908152602001600020549081150290604051600060405180830381858888f1935050505015801561106b573d6000803e3d6000fd5b506000600360003373ffffffffffffffffffffffffffffffffffffffff1673ffffffffffffffffffffffffffffffffffffffff16815260200190815260200160002081905550565b6000600360008373ffffffffffffffffffffffffffffffffffffffff1673ffffffffffffffffffffffffffffffffffffffff1681526020019081526020016000205411611135576040517f08c379a000000000000000000000000000000000000000000000000000000000815260040161112c906122bb565b60405180910390fd5b60006111408261051b565b9050600061114d83610782565b9050600060646002600360008773ffffffffffffffffffffffffffffffffffffffff1673ffffffffffffffffffffffffffffffffffffffff1681526020019081526020016000205461119f919061222d565b6111a9919061230a565b9050806002836111b9919061222d565b846111c49190612120565b6111ce9190612120565b600360008673ffffffffffffffffffffffffffffffffffffffff1673ffffffffffffffffffffffffffffffffffffffff16815260200190815260200160002054111561124f576040517f08c379a0000000000000000000000000000000000000000000000000000000008152600401611246906123ad565b60405180910390fd5b80600360008673ffffffffffffffffffffffffffffffffffffffff1673ffffffffffffffffffffffffffffffffffffffff168152602001908152602001600020600082825461129e91906121f9565b925050819055503373ffffffffffffffffffffffffffffffffffffffff166108fc829081150290604051600060405180830381858888f193505050501580156112eb573d6000803e3d6000fd5b506112f584611564565b50505050565b600061130682610c98565b905060006001600084815260200190815260200160002060070160009054906101000a900473ffffffffffffffffffffffffffffffffffffffff1690506000600360008373ffffffffffffffffffffffffffffffffffffffff1673ffffffffffffffffffffffffffffffffffffffff16815260200190815260200160002054905082600360008473ffffffffffffffffffffffffffffffffffffffff1673ffffffffffffffffffffffffffffffffffffffff1681526020019081526020016000205411156114295782600360008473ffffffffffffffffffffffffffffffffffffffff1673ffffffffffffffffffffffffffffffffffffffff168152602001908152602001600020600082825461141d91906121f9565b9250508190555061146f565b6000600360008473ffffffffffffffffffffffffffffffffffffffff1673ffffffffffffffffffffffffffffffffffffffff168152602001908152602001600020819055505b6000600360008473ffffffffffffffffffffffffffffffffffffffff1673ffffffffffffffffffffffffffffffffffffffff16815260200190815260200160002054905080826114bf91906121f9565b6001600087815260200190815260200160002060010160008282546114e49190612120565b925050819055506000600160008781526020019081526020016000206008018190555060006001600087815260200190815260200160002060070160006101000a81548173ffffffffffffffffffffffffffffffffffffffff021916908373ffffffffffffffffffffffffffffffffffffffff1602179055505050505050565b60005b6002805490508110156117b7576000600160006002848154811061158e5761158d6120c2565b5b90600052602060002001548152602001908152602001600020604051806101200160405290816000820160009054906101000a900460ff1615151515815260200160018201548152602001600282015481526020016003820160009054906101000a900473ffffffffffffffffffffffffffffffffffffffff1673ffffffffffffffffffffffffffffffffffffffff1673ffffffffffffffffffffffffffffffffffffffff1681526020016004820160405180604001604052908160008201548152602001600182015481525050815260200160068201805461167090611e13565b80601f016020809104026020016040519081016040528092919081815260200182805461169c90611e13565b80156116e95780601f106116be576101008083540402835291602001916116e9565b820191906000526020600020905b8154815290600101906020018083116116cc57829003601f168201915b505050505081526020016007820160009054906101000a900473ffffffffffffffffffffffffffffffffffffffff1673ffffffffffffffffffffffffffffffffffffffff1673ffffffffffffffffffffffffffffffffffffffff1681526020016008820154815260200160098201548152505090508273ffffffffffffffffffffffffffffffffffffffff168160c0015173ffffffffffffffffffffffffffffffffffffffff16036117a3576117a281604001516112fb565b5b5080806117af90612154565b915050611567565b5050565b6000604051905090565b600080fd5b600080fd5b600080fd5b600080fd5b6000601f19601f8301169050919050565b7f4e487b7100000000000000000000000000000000000000000000000000000000600052604160045260246000fd5b611822826117d9565b810181811067ffffffffffffffff82111715611841576118406117ea565b5b80604052505050565b60006118546117bb565b90506118608282611819565b919050565b600067ffffffffffffffff8211156118805761187f6117ea565b5b611889826117d9565b9050602081019050919050565b82818337600083830152505050565b60006118b86118b384611865565b61184a565b9050828152602081018484840111156118d4576118d36117d4565b5b6118df848285611896565b509392505050565b600082601f8301126118fc576118fb6117cf565b5b813561190c8482602086016118a5565b91505092915050565b6000819050919050565b61192881611915565b811461193357600080fd5b50565b6000813590506119458161191f565b92915050565b600080600060608486031215611964576119636117c5565b5b600084013567ffffffffffffffff811115611982576119816117ca565b5b61198e868287016118e7565b935050602061199f86828701611936565b92505060406119b086828701611936565b9150509250925092565b6119c381611915565b82525050565b60006020820190506119de60008301846119ba565b92915050565b600073ffffffffffffffffffffffffffffffffffffffff82169050919050565b6000611a0f826119e4565b9050919050565b611a1f81611a04565b8114611a2a57600080fd5b50565b600081359050611a3c81611a16565b92915050565b600060208284031215611a5857611a576117c5565b5b6000611a6684828501611a2d565b91505092915050565b60008060408385031215611a8657611a856117c5565b5b6000611a9485828601611936565b9250506020611aa585828601611936565b9150509250929050565b600060208284031215611ac557611ac46117c5565b5b6000611ad384828501611936565b91505092915050565b600081519050919050565b600082825260208201905092915050565b60005b83811015611b16578082015181840152602081019050611afb565b60008484015250505050565b6000611b2d82611adc565b611b378185611ae7565b9350611b47818560208601611af8565b611b50816117d9565b840191505092915050565b60006020820190508181036000830152611b758184611b22565b905092915050565b60008115159050919050565b611b9281611b7d565b82525050565b611ba181611a04565b82525050565b611bb081611915565b82525050565b604082016000820151611bcc6000850182611ba7565b506020820151611bdf6020850182611ba7565b50505050565b600061014082019050611bfb600083018c611b89565b611c08602083018b6119ba565b611c15604083018a6119ba565b611c226060830189611b98565b611c2f6080830188611bb6565b81810360c0830152611c418187611b22565b9050611c5060e0830186611b98565b611c5e6101008301856119ba565b611c6c6101208301846119ba565b9a9950505050505050505050565b7f42696c6c626f61726420646f6573206e6f742065786973740000000000000000600082015250565b6000611cb0601883611ae7565b9150611cbb82611c7a565b602082019050919050565b60006020820190508181036000830152611cdf81611ca3565b9050919050565b7f4e657720636f73742070657220626c6f636b2068617320746f2062652068696760008201527f686572207468616e2070726576696f757320636f73742070657220626c6f636b602082015250565b6000611d42604083611ae7565b9150611d4d82611ce6565b604082019050919050565b60006020820190508181036000830152611d7181611d35565b9050919050565b7f4e6f7420656e6f756768207374616b652070726f766964656400000000000000600082015250565b6000611dae601983611ae7565b9150611db982611d78565b602082019050919050565b60006020820190508181036000830152611ddd81611da1565b9050919050565b7f4e487b7100000000000000000000000000000000000000000000000000000000600052602260045260246000fd5b60006002820490506001821680611e2b57607f821691505b602082108103611e3e57611e3d611de4565b5b50919050565b60008190508160005260206000209050919050565b60006020601f8301049050919050565b600082821b905092915050565b600060088302611ea67fffffffffffffffffffffffffffffffffffffffffffffffffffffffffffffffff82611e69565b611eb08683611e69565b95508019841693508086168417925050509392505050565b6000819050919050565b6000611eed611ee8611ee384611915565b611ec8565b611915565b9050919050565b6000819050919050565b611f0783611ed2565b611f1b611f1382611ef4565b848454611e76565b825550505050565b600090565b611f30611f23565b611f3b818484611efe565b505050565b5b81811015611f5f57611f54600082611f28565b600181019050611f41565b5050565b601f821115611fa457611f7581611e44565b611f7e84611e59565b81016020851015611f8d578190505b611fa1611f9985611e59565b830182611f40565b50505b505050565b600082821c905092915050565b6000611fc760001984600802611fa9565b1980831691505092915050565b6000611fe08383611fb6565b9150826002028217905092915050565b611ff982611adc565b67ffffffffffffffff811115612012576120116117ea565b5b61201c8254611e13565b612027828285611f63565b600060209050601f83116001811461205a5760008415612048578287015190505b6120528582611fd4565b8655506120ba565b601f19841661206886611e44565b60005b828110156120905784890151825560018201915060208501945060208101905061206b565b868310156120ad57848901516120a9601f891682611fb6565b8355505b6001600288020188555050505b505050505050565b7f4e487b7100000000000000000000000000000000000000000000000000000000600052603260045260246000fd5b7f4e487b7100000000000000000000000000000000000000000000000000000000600052601160045260246000fd5b600061212b82611915565b915061213683611915565b925082820190508082111561214e5761214d6120f1565b5b92915050565b600061215f82611915565b91507fffffffffffffffffffffffffffffffffffffffffffffffffffffffffffffffff8203612191576121906120f1565b5b600182019050919050565b60006020820190506121b16000830184611b98565b92915050565b6000815190506121c68161191f565b92915050565b6000602082840312156121e2576121e16117c5565b5b60006121f0848285016121b7565b91505092915050565b600061220482611915565b915061220f83611915565b9250828203905081811115612227576122266120f1565b5b92915050565b600061223882611915565b915061224383611915565b925082820261225181611915565b91508282048414831517612268576122676120f1565b5b5092915050565b7f52656e74657220686173206e6f207374616b6500000000000000000000000000600082015250565b60006122a5601383611ae7565b91506122b08261226f565b602082019050919050565b600060208201905081810360008301526122d481612298565b9050919050565b7f4e487b7100000000000000000000000000000000000000000000000000000000600052601260045260246000fd5b600061231582611915565b915061232083611915565b9250826123305761232f6122db565b5b828204905092915050565b7f52656e746572207374696c6c2068617320656e6f756768207374616b6520746f60008201527f20636f76657220636f7374730000000000000000000000000000000000000000602082015250565b6000612397602c83611ae7565b91506123a28261233b565b604082019050919050565b600060208201905081810360008301526123c68161238a565b905091905056fea26469706673582212200bc975ae28b19c04f41d54ff1d80dc5133dd7e281f69e8ffe78fce165964b54164736f6c63430008120033",
  "linkReferences": {},
  "deployedLinkReferences": {}
}